:020000040800F2
:1000000000000220CD3200081D3300081D33000817
:100010001D3300081D3300081D33000800000000D8
:100020000000000000000000000000001D33000878
:100030001D330008000000001D3300082B090008D4
:100040001D3300081D3300081D3300081D33000850
:100050001D3300081D3300081D3300081D33000840
:100060001D3300081D3300081D3300081D33000830
:100070001D3300081D3300081D3300081D33000820
:100080001D3300081D3300081D3300080000000068
:100090000000000000000000000000001D33000808
:1000A0001D3300081D3300081D3300081D330008F0
:1000B0001D3300081D3300081D3300081D330008E0
:1000C0001D3300081D3300081D3300081D330008D0
:1000D0001D3300081D3300081D3300080000000018
:1000E0001D3300081D3300081D3300080000000008
:1000F0000000000000000000000000001D330008A8
:10010000000000001D3300081D3300081D330008E7
:1001100000000000000000000000000000000000DF
:100120001D3300081D3300081D3300081D3300086F
:100130001D33000800000000000000000000000067
:100140000000000000000000000000001D33000857
:100150001D3300081D3300081D3300081D3300083F
:100160001D3300081D3300080000000000000000DF
:10017000000000000000000000000000000000007F
:10018000000000001D330008000000000000000017
:080190001D3300081D330008B7
:100198000348044B834202D0034B03B1184770470E
:1001A800100000201000002000000000054806494B
:1001B8000B1AD90F01EBA301491002D0034B03B16D
:1001C80018477047100000201000002000000000B1
:1001D80010B5064C237843B9FFF7DAFF044B13B187
:1001E8000448AFF300800123237010BD10000020E5
:1001F800000000002033000808B5044B1BB1044977
:100208000448AFF30080BDE80840CFE700000000D5
:10021800140000202033000853B94AB9002908BF48
:1002280000281CBF4FF0FF314FF0FF3000F074B9C9
:10023800ADF1080C6DE904CE00F006F8DDF804E035
:10024800DDE9022304B070472DE9F047089D044614
:100258008E46002B4DD18A42944669D9B2FA82F271
:1002680052B101FA02F3C2F1200120FA01F10CFAAD
:1002780002FC41EA030E94404FEA1C48210CBEFBE5
:10028800F8F61FFA8CF708FB16E341EA034306FB6E
:1002980007F199420AD91CEB030306F1FF3080F0FD
:1002A8001F81994240F21C81023E63445B1AA4B24A
:1002B800B3FBF8F008FB103344EA034400FB07F7EC
:1002C800A7420AD91CEB040400F1FF3380F00A812D
:1002D800A74240F207816444023840EA0640E41B22
:1002E80000261DB1D4400023C5E900433146BDE8CE
:1002F800F0878B4209D9002D00F0EF800026C5E970
:10030800000130463146BDE8F087B3FA83F6002E87
:100318004AD18B4202D3824200F2F980841A61EBFF
:10032800030301209E46002DE0D0C5E9004EDDE71D
:1003380002B9FFDEB2FA82F2002A40F09280A1EB05
:100348000C014FEA1C471FFA8CFE0126200CB1FB5A
:10035800F7F307FB131140EA01410EFB03F0884253
:1003680008D91CEB010103F1FF3802D2884200F2E0
:10037800CB804346091AA4B2B1FBF7F007FB101172
:1003880044EA01440EFB00FEA64508D91CEB040410
:1003980000F1FF3102D2A64500F2BB800846A4EB6B
:1003A8000E0440EA03409CE7C6F12007B34022FA56
:1003B80007FC4CEA030C20FA07F401FA06F31C4385
:1003C800F9404FEA1C4900FA06F3B1FBF9F8200C92
:1003D8001FFA8CFE09FB181140EA014108FB0EF0D8
:1003E800884202FA06F20BD91CEB010108F1FF3A28
:1003F80080F08880884240F28580A8F10208614434
:10040800091AA4B2B1FBF9F009FB101144EA014141
:1004180000FB0EFE8E4508D91CEB010100F1FF34EC
:100428006CD28E456AD90238614440EA0840A0FB84
:100438000294A1EB0E01A142C846A64656D353D05A
:100448005DB1B3EB080261EB0E0101FA07F722FA7E
:1004580006F3F1401F43C5E9007100263146BDE8A7
:10046800F087C2F12003D8400CFA02FC21FA03F30A
:10047800914001434FEA1C471FFA8CFEB3FBF7F08B
:1004880007FB10360B0C43EA064300FB0EF69E42B0
:1004980004FA02F408D91CEB030300F1FF382FD249
:1004A8009E422DD9023863449B1B89B2B3FBF7F6F1
:1004B80007FB163341EA034106FB0EF38B4208D9CA
:1004C8001CEB010106F1FF3816D28B4214D9023E0B
:1004D8006144C91A46EA004638E72E46284605E729
:1004E8000646E3E61846F8E64B45A9D2B9EB0208FA
:1004F80064EB0C0E0138A3E74646EAE7204694E78A
:100508004046D1E7D0467BE7023B614432E73046BC
:1005180009E76444023842E7704700BF70B50D4EE2
:100528000D4D761BB61006D0002455F8043B013457
:100538009847A642F9D1094E094D761B02F0ECFE08
:10054800B61006D0002455F8043B01349847A6425B
:10055800F9D170BD70330008703300087433000897
:1005680070330008830730B548D0541E002A3FD0A6
:10057800CAB2034601E0013C3AD303F8012B9D07B8
:10058800F9D1032C2DD9CDB245EA05250F2C45EA22
:10059800054536D9A4F1100222F00F0C03F1200E04
:1005A800E6444FEA121C03F1100242E9045542E9FD
:1005B800025510327245F8D10CF1010214F00C0FFB
:1005C80003EB021204F00F0C13D0ACF1040323F078
:1005D80003030433134442F8045B9342FBD10CF049
:1005E80003042CB1CAB21C4403F8012B9C42FBD172
:1005F80030BD64461346002CF4D1F9E7034614468F
:10060800BFE71A46A446E0E780B582B002AF0023F0
:100618000093002301224FF40051034800F098FB97
:1006280000BFBD4680BD00BF0008024080B582B053
:1006380002AF00230093012301220121024800F0A8
:1006480087FB00BFBD4680BD0000024080B582B078
:1006580000AF786000F02CFD02460A4B1B68D31AE5
:100668007A689A4209D800F023FD0346054A1360C8
:100678004FF40051044801F0DCFD00BF0837BD46C7
:1006880080BD00BF2C0000200008024080B400AFED
:10069800034B02221A7000BFBD465DF8047B704709
:1006A8000000002080B483B000AF0346FB71044A09
:1006B800FB79137000BF0C37BD465DF8047B7047AB
:1006C8000000002080B586B000AFF860B9607A609D
:1006D8003A4B1B78042B68D801A252F823F000BFCC
:1006E800FD060008530700085B070008910700088B
:1006F800A50700084FF4FA70FFF7A8FF012130485A
:1007080001F066FD0346002B53D1322000F0DCFCDB
:1007180001212B4801F05CFD0346002B49D100BFA5
:100728000121274801F054FD0346002BF8D0322060
:1007380000F0CAFCF86800F0F6F94FF4FA7000F01F
:10074800C3FC0220FFF7AEFF33E00220FFF7AAFF49
:1007580030E04FF47A70FFF779FF00237B617B6903
:100768009BB203F57A639BB21BB21946B86800F0D6
:10077800FBF87B699BB203F57A639BB21BB21946FF
:10078800786800F0F1F815E0B86800F09CF978682E
:1007980000F099F90020FFF785FF0BE0B86800F03A
:1007A80092F9786800F08FF904E00220FFF77AFFE9
:1007B80000E000BF00BF1837BD4680BD0000002024
:1007C8000000024080B582B002AF00F003FC00F0E8
:1007D8003BF8FFF719FFFFF729FF00F0B6F94FF4D0
:1007E8007A630093042300221049114800F09FF80F
:1007F8004FF47A6300930C2308220C490D4800F04B
:1008080096F89FED0D2ADFED0D1AB0EE041ADFED14
:100818000C0AB1EE040A0B4800F061F9FFF736FF45
:10082800044A03490748FFF74DFFF9E72001002074
:100838004C0000205C0000200000FA430000FAC3CE
:10084800000000003000002080B594B000AF07F130
:100858002003302200211846FFF784FE07F10C031D
:1008680000221A605A609A60DA601A610023BB603D
:10087800274B1B6C264A43F080531364244B1B6C94
:1008880003F08053BB60BB6800237B60214B1B686F
:10089800204A43F4404313601E4B1B6803F4404353
:1008A8007B607B6802233B620123FB6210233B636E
:1008B8000223BB630023FB6308233B6464237B643C
:1008C8000223BB640423FB6407F12003184601F0EC
:1008D800CBFC0346002B01D000F01EF80F23FB6071
:1008E80002233B6100237B614FF48053BB610023EB
:1008F800FB6107F10C030321184601F02DFF0346A5
:10090800002B01D000F008F800BF5037BD4680BD6D
:10091800003802400070004080B400AF72B600BFDB
:10092800FEE780B500AF00F0AFFB00BF80BD80B52B
:1009380084B000AFF860B9607A603B60FB68BA6861
:100948001A60FB687A685A60FB683A689A60B7F977
:100958001820FB689A8100F087FAF86800F0B3F86D
:1009680000BF1037BD4680BD80B485B000AF786049
:100978000B467B807B68B3F90C30B7F902209A42AA
:1009880002DD7B689B897B80B7F90230002BB8BFFA
:100998005B429BB2FB60B7F90230002B46DD7B68F7
:1009A8005B68002B05D17B681B681B68FA685A6373
:1009B80018E07B685B68042B05D17B681B681A68A4
:1009C800FB6893630EE07B685B68082B05D17B6846
:1009D8001B681A68FB68D36304E07B681B681A68A5
:1009E800FB6813647B689B68002B05D17B681B68D8
:1009F8001B6800225A6360E07B689B68042B05D162
:100A08007B681B681A680023936356E07B689B68C1
:100A1800082B05D17B681B681A680023D3634CE058
:100A28007B681B681A680023136446E07B685B6870
:100A3800002B05D17B681B681B6800225A6318E0ED
:100A48007B685B68042B05D17B681B681A680023E8
:100A580093630EE07B685B68082B05D17B681B6895
:100A68001A680023D36304E07B681B681A680023B4
:100A780013647B689B68002B05D17B681B681B6827
:100A880000225A6319E07B689B68042B05D17B68B8
:100A98001B681A68002393630FE07B689B68082B28
:100AA80005D17B681B681A680023D36305E07B685F
:100AB8001B681A6800231364FFE700BF1437BD469C
:100AC8005DF8047B704780B582B000AF7860002184
:100AD8007868FFF749FF00BF0837BD4680BD80B57D
:100AE80086B000AF786187ED040AC7ED030A87ED89
:100AF800021AC7ED011A87ED002A7B693A691A6064
:100B08007B69FA685A607B69BA689A607B697A6817
:100B18009A617B693A685A61786900F004F800BF05
:100B28001837BD4680BD80B483B000AF78607B685D
:100B38004FF00002DA607B684FF000021A6100BFD4
:100B48000C37BD465DF8047B704780B500AF00F0F8
:100B580003F800BF80BD0000B0B594B000AF00231B
:100B6800FB60714B1B6B704A43F0010313636E4BC0
:100B78001B6B03F00103FB60FB680023BB606A4B3F
:100B88001B6B694A43F002031363674B1B6B03F04B
:100B98000203BB60BB6800237B60634B5B6C624AEB
:100BA80043F480735364604B5B6C03F480737B6025
:100BB8007B6800233B605C4B1B6B5B4A43F4800300
:100BC8001363594B1B6B03F480033B603B6807F1CD
:100BD800380300221A605A609A60DA601A610323A7
:100BE800FB6300233B64E123BB6307F13803194629
:100BF8004E4801F069F90323BB6307F1380319462E
:100C08004B4801F061F94B4B4B4A1A60494B0022A3
:100C18005A60484B00229A60464B0022DA60454BE6
:100C28004FF480621A61434B4FF400625A61414BA2
:100C38004FF400529A613F4B4FF48072DA613D4B9A
:100C48004FF400321A623B4B00225A62394800F0D6
:100C580055FF3A4B374A9A63364B384A9A63374BB3
:100C6800374A1A60354B4FF480325A60334B0022B2
:100C78009A60324B01221A61304B01221A762F4BAF
:100C8800002283F820202D4B0022DA622B4B2D4ABC
:100C98009A622A4B0022DA60284B0622DA61274B37
:100CA800012283F83020254B00225A61234800F0A6
:100CB8002FFA07F1280300221A605A609A60DA6056
:100CC80004233B63204B07F110041D460FCD0FC4CE
:100CD80095E8030084E803000023FB6418E0FB6C3C
:100CE8009B0050333B4453F8403CBB62FB6C0133E0
:100CF800FB6207F128031946104800F069FB034618
:100D0800002B02D00D4800F059FBFB6C0133FB644B
:100D1800FB6C052BE3D906220C49084800F046FA7B
:100D280000BF5037BD46B0BD003802400000024049
:100D380000040240B4000020106402406C0000204F
:100D4800002001400100000F383300081401002082
:100D580080B58AB000AFF8607A603B600B467B8153
:100D6800F86800F021F87B8900221946F86801F03C
:100D780047FA07F1140300221A605A609A60DA6091
:100D88001A617B897B617B68BB613B68FB613B6B5C
:100D98003B6207F114031946F86801F095F800BFA3
:100DA8002837BD4680BD000080B487B000AF7860AA
:100DB8007B68284A93420ED100237B61264B1B6B2C
:100DC800254A43F001031363234B1B6B03F0010314
:100DD8007B617B6937E07B68204A93420ED1002310
:100DE8003B611D4B1B6B1C4A43F0020313631A4BF8
:100DF8001B6B03F002033B613B6924E07B68184AE4
:100E080093420ED10023FB60134B1B6B124A43F035
:100E180004031363104B1B6B03F00403FB60FB68B4
:100E280011E07B680F4A93420DD10023BB600A4B47
:100E38001B6B094A43F080031363074B1B6B03F0DA
:100E48008003BB60BB6800BF1C37BD465DF8047BF0
:100E5800704700BF00000240003802400004024012
:100E680000080240001C024080B590B000AF00238B
:100E7800FB604B4B1B6B4A4A43F002031363484B1E
:100E88001B6B03F00203FB60FB680023BB60444B51
:100E98001B6C434A43F002031364414B1B6C03F081
:100EA8000203BB60BB6800237B603D4B1B6C3C4A64
:100EB80043F0040313643A4B1B6C03F004037B6098
:100EC8007B6807F12C0300221A605A609A60DA6086
:100ED8001A6102233B6300237B630323BB634FF444
:100EE8007073FB620223FB6307F12C0319462D483C
:100EF80000F0EAFF2C4B2D4A1A602B4B00225A6057
:100F0800294B41F28732DA60274B00229A60264B40
:100F180000221A61244801F0CBFD07F110030022DA
:100F28001A605A609A60DA601A615A619A6160239D
:100F38003B6100237B610023BB6100233B6207F117
:100F4800100300221946184801F0BCFE07F11003EF
:100F580004221946144801F0B5FE07F110030822CF
:100F68001946114801F0AEFE07F110030C2219468C
:100F78000D4801F0A7FE00210B4801F0F3FD042104
:100F8800094801F0EFFD0821074801F0EBFD0C21AD
:100F9800054801F0E7FD00BF4037BD4680BD00BFF2
:100FA80000380240000402402001002000080040F0
:100FB80080B400AF064BD3F88830054A43F4700379
:100FC800C2F8883000BFBD465DF8047B704700BF9B
:100FD80000ED00E080B500AF0E4B1B680D4A43F4EE
:100FE800007313600B4B1B680A4A43F48063136059
:100FF800084B1B68074A43F480731360032000F012
:1010080049FD0F2000F010F800F006F800231846FC
:1010180080BD00BF003C024080B400AF00BFBD46A9
:101028005DF8047B7047000080B582B000AF78603F
:10103800124B1A68124B1B7819464FF47A73B3FB9C
:10104800F1F3B2FBF3F3184600F04BFD0346002B17
:1010580001D001230EE07B680F2B0AD800227968A3
:101068004FF0FF3000F021FD064A7B681360002333
:1010780000E0012318460837BD4680BD0400002063
:101088000C0000200800002080B400AF064B1B783D
:101098001A46064B1B681344044A136000BFBD463A
:1010A8005DF8047B704700BF0C0000206801002039
:1010B80080B400AF034B1B681846BD465DF8047B3F
:1010C800704700BF6801002080B584B000AF786029
:1010D800FFF7EEFFB8607B68FB60FB68B3F1FF3F8A
:1010E80005D00A4B1B781A46FB681344FB6000BF07
:1010F800FFF7DEFF0246BB68D31AFA689A42F7D8B0
:1011080000BF00BF1037BD4680BD00BF0C000020E7
:1011180080B584B000AF78600023FB737B68002B38
:1011280001D1012333E07B681B6C002B09D178685F
:1011380000F031F87B6800225A647B68002283F84B
:101148003C207B681B6C03F01003002B18D17B68D4
:101158001B6C23F4885323F0020343F002027B68DC
:101168001A64786800F066FA7B6800225A647B6823
:101178001B6C23F0030343F001027B681A6401E04F
:101188000123FB737B68002283F83C20FB7B184615
:101198001037BD4680BD80B483B000AF786000BF13
:1011A8000C37BD465DF8047B7047000080B588B0F9
:1011B80000AFF860B9607A6000237B610023FB7799
:1011C800FB6893F83C30012B01D10223D0E0FB6887
:1011D800012283F83C20FB681B689B6803F001032D
:1011E800012B18D0FB681B689A68FB681B6842F0E3
:1011F80001029A60604B1B68604AA2FB03239A0CA9
:1012080013465B0013447B6102E07B69013B7B6111
:101218007B69002BF9D1FB681B689B6803F480731A
:10122800B3F5807F07D1FB681B689A68FB681B6869
:1012380022F480729A60FB681B689B6803F00103C4
:10124800012B40F08880FB681B6C23F4E06323F0DB
:10125800010343F48072FB681A64FB681B685B68CF
:1012680003F48063002B07D0FB681B6C23F4405306
:1012780043F48052FB681A64FB681B6C03F48053C8
:10128800B3F5805F06D1FB685B6C23F00602FB6850
:101298005A6402E0FB6800225A64FB68002283F863
:1012A8003C20374BBB61FB689B6B364ADA63FB68B3
:1012B8009B6B354A1A64FB689B6B344ADA64FB689B
:1012C8001B686FF022021A60FB681B685A68FB688B
:1012D8001B6842F080625A60FB681B689A68FB686A
:1012E8001B6842F480729A60FB68986BFB681B6805
:1012F8004C331946BA687B6800F0AEFC0346FB77AE
:10130800BB695B6803F01F03002B0FD1FB681B68E8
:101318009B6803F04053002B29D1FB681B689A682F
:10132800FB681B6842F080429A6020E0FB681B68FB
:10133800174A93421BD1FB681B689B6803F0405314
:10134800002B14D1FB681B689A68FB681B6842F085
:1013580080429A600BE0FB681B6C43F01002FB684C
:101368001A64FB685B6C43F00102FB685A64FB7FFC
:1013780018462037BD4680BD0400002083DE1B438D
:101388000023014035180008EF1800080B19000861
:101398000020014080B483B000AF786000BF0C37F4
:1013A800BD465DF8047B704780B483B000AF7860B9
:1013B80000BF0C37BD465DF8047B704780B483B02E
:1013C80000AF786000BF0C37BD465DF8047B7047FE
:1013D80080B485B000AF786039600023BB607B685B
:1013E80093F83C30012B01D1022313E17B680122E1
:1013F80083F83C203B681B68092B25D97B681B6850
:10140800D9683B681B689BB21A4613465B001344B5
:101418001E3B072202FA03F3DA437B681B680A4083
:10142800DA607B681B68D9683B689A683B681B6808
:101438009BB2184603465B0003441E3B9A407B68F8
:101448001B680A43DA6022E07B681B6819693B68FD
:101458001B689BB21A4613465B001344072202FA24
:1014680003F3DA437B681B680A401A617B681B68D0
:1014780019693B689A683B681B689BB21846034623
:101488005B0003449A407B681B680A431A613B6807
:101498005B68062B24D87B681B68596B3B685A68C5
:1014A80013469B001344053B1F2202FA03F3DA4359
:1014B8007B681B680A405A637B681B68596B3B68EA
:1014C8001B689BB218463B685A6813469B00134436
:1014D800053B00FA03F27B681B680A435A634CE039
:1014E8003B685B680C2B24D87B681B68196B3B68CE
:1014F8005A6813469B001344233B1F2202FA03F346
:10150800DA437B681B680A401A637B681B68196B9F
:101518003B681B689BB218463B685A6813469B0099
:101528001344233B00FA03F27B681B680A431A63DF
:1015380023E07B681B68D96A3B685A6813469B009E
:101548001344413B1F2202FA03F3DA437B681B680A
:101558000A40DA627B681B68D96A3B681B689BB2E1
:1015680018463B685A6813469B001344413B00FAEF
:1015780003F27B681B680A43DA62294BFB607B68CD
:101588001B68284A93420FD13B681B68122B0BD16A
:10159800FB685B6823F40002FB685A60FB685B68C1
:1015A80043F48002FB685A607B681B681D4A9342BB
:1015B8002BD13B681B681C4A934203D03B681B68CD
:1015C800112B22D1FB685B6823F48002FB685A6008
:1015D800FB685B6843F40002FB685A603B681B6861
:1015E800114A934211D1114B1B68114AA2FB0323E4
:1015F8009A0C13469B0013445B00BB6002E0BB6877
:10160800013BBB60BB68002BF9D17B68002283F8E3
:101618003C20002318461437BD465DF8047B70470C
:1016280000230140002001401200001004000020A7
:1016380083DE1B4380B485B000AF7860794BFB60D4
:10164800FB685B6823F44032FB685A60FB685A68A1
:101658007B685B681A43FB685A607B681B685A683A
:101668007B681B6822F480725A607B681B68596823
:101678007B681B691A027B681B680A435A607B688F
:101688001B685A687B681B6822F040725A607B6846
:101698001B6859687B689A687B681B680A435A60AC
:1016A8007B681B689A687B681B6822F400629A60F2
:1016B8007B681B6899687B68DA687B681B680A43E3
:1016C8009A607B689B6A584A934222D07B681B6861
:1016D8009A687B681B6822F070629A607B681B6856
:1016E80099687B689A6A7B681B680A439A607B687A
:1016F8001B689A687B681B6822F040529A607B6876
:101708001B6899687B68DA6A7B681B680A439A6079
:101718000FE07B681B689A687B681B6822F0706220
:101728009A607B681B689A687B681B6822F0405245
:101738009A607B681B689A687B681B6822F00202C3
:101748009A607B681B6899687B681B7E5A007B6877
:101758001B680A439A607B6893F82030002B1BD0E3
:101768007B681B685A687B681B6842F400625A6091
:101778007B681B685A687B681B6822F460425A6061
:101788007B681B6859687B685B6A013B5A037B6806
:101798001B680A435A6007E07B681B685A687B68C5
:1017A8001B6822F400625A607B681B68DA6A7B68EF
:1017B8001B6822F47002DA627B681B68D96A7B684E
:1017C800DB69013B1A057B681B680A43DA627B68A0
:1017D8001B689A687B681B6822F400729A607B68B1
:1017E8001B6899687B6893F830305A027B681B68DD
:1017F8000A439A607B681B689A687B681B6822F4B6
:1018080080629A607B681B6899687B685B699A024A
:101818007B681B680A439A6000BF1437BD465DF8B1
:10182800047B7047002301400100000F80B584B09D
:1018380000AF78607B689B6BFB60FB681B6C03F0F8
:101848005003002B3CD1FB681B6C43F40072FB680F
:101858001A64FB681B689B6803F04053002B2BD16C
:10186800FB681B7E002B27D1FB681B68DB6A03F42F
:101878007003002B06D0FB681B689B6803F4806329
:10188800002B19D1FB681B685A68FB681B6822F09B
:1018980020025A60FB681B6C23F48072FB681A6490
:1018A800FB681B6C03F48053002B05D1FB681B6C91
:1018B80043F00102FB681A64F868FFF76BFD0EE05D
:1018C800FB681B6C03F01003002B03D0F868FFF7CC
:1018D80075FD04E0FB689B6BDB6C7868984700BF7C
:1018E8001037BD4680BD80B584B000AF78607B6896
:1018F8009B6BFB60F868FFF757FD00BF1037BD46CC
:1019080080BD80B584B000AF78607B689B6BFB605E
:10191800FB6840221A64FB685B6C43F00402FB68B6
:101928005A64F868FFF74AFD00BF1037BD4680BD0E
:1019380080B485B000AF78607B6803F00703FB6074
:101948000C4BDB68BB60BA684FF6FF031340BB6003
:10195800FB681A02BB68134343F0BF6343F40033C8
:10196800BB60044ABB68D36000BF1437BD465DF84E
:10197800047B704700ED00E080B400AF044BDB68E7
:101988001B0A03F007031846BD465DF8047B704741
:1019980000ED00E080B483B000AF03463960FB710E
:1019A80097F90730002B0ADB3B68DAB20C4997F944
:1019B80007301201D2B20B4483F800230AE03B68D7
:1019C800DAB20849FB7903F00F03043B1201D2B2E3
:1019D8000B441A7600BF0C37BD465DF8047B704790
:1019E80000E100E000ED00E080B489B000AFF860ED
:1019F800B9607A60FB6803F00703FB61FB69C3F118
:101A08000703042B28BF0423BB61FB690433062B9F
:101A180002D9FB69033B00E000237B614FF0FF32F2
:101A2800BB6902FA03F3DA43BB681A407B699A4040
:101A38004FF0FF317B6901FA03F3D9437B680B4010
:101A4800134318462437BD465DF8047B70470000F1
:101A580080B582B000AF78607B68013BB3F1807FCE
:101A680001D301230FE00A4A7B68013B53600F2131
:101A78004FF0FF30FFF78EFF054B00229A60044BB2
:101A880007221A60002318460837BD4680BD00BFEC
:101A980010E000E080B582B000AF78607868FFF7AA
:101AA80047FF00BF0837BD4680BD80B586B000AF90
:101AB8000346B9607A60FB7300237B61FFF75CFF24
:101AC80078617A68B9687869FFF78EFF024697F9F6
:101AD8000F3011461846FFF75DFF00BF1837BD46A7
:101AE80080BD80B582B000AF78607868FFF7B0FF3E
:101AF800034618460837BD4680BD000080B586B04D
:101B080000AF786000237B61FFF7D2FA38617B6809
:101B1800002B01D1012399E07B68022283F835204C
:101B28007B68002283F834207B681B681A687B680E
:101B38001B6822F001021A600FE0FFF7B9FA0246AB
:101B48003B69D31A052B08D97B6820225A657B6824
:101B5800032283F83520032378E07B681B681B6821
:101B680003F00103002BE8D17B681B681B687B61CD
:101B78007A69384B13407B617B685A687B689B683D
:101B88001A437B68DB681A437B681B691A437B68C6
:101B98005B691A437B689B691A437B68DB691A4354
:101BA8007B681B6A13437A6913437B617B685B6AB2
:101BB800042B07D17B68DA6A7B681B6B13437A694D
:101BC80013437B617B681B687A691A607B681B68B2
:101BD8005B697B617B6923F007037B617B685B6AD8
:101BE8007A6913437B617B685B6A042B17D17B6836
:101BF8009B6A7A6913437B617B68DB6A002B0ED092
:101C0800786800F0E5F80346002B08D07B6840228E
:101C18005A657B68012283F83520012316E07B682A
:101C28001B687A695A61786800F09CF80346FB6083
:101C38007B68DB6D3F229A40FB689A607B680022D4
:101C48005A657B68012283F8352000231846183727
:101C5800BD4680BD3F8010F080B586B000AFF8600B
:101C6800B9607A603B600023FB75FB689B6D3B6144
:101C7800FB6893F83430012B01D1022340E0FB6864
:101C8800012283F83420FB6893F83530DBB2012B4E
:101C98002FD1FB68022283F83520FB6800225A65A1
:101CA8003B687A68B968F86800F02EF8FB68DB6D65
:101CB8003F229A403B699A60FB681B681A68FB6878
:101CC8001B6842F016021A60FB681B6C002B07D0D9
:101CD800FB681B681A68FB681B6842F008021A60F8
:101CE800FB681B681A68FB681B6842F001021A60EF
:101CF80005E0FB68002283F834200223FB75FB7D96
:101D080018461837BD4680BD80B485B000AFF8606E
:101D1800B9607A603B60FB681B681A68FB681B68DF
:101D280022F480221A60FB681B683A685A60FB68D4
:101D38009B68402B08D1FB681B687A689A60FB682F
:101D48001B68BA68DA6007E0FB681B68BA689A60C3
:101D5800FB681B687A68DA6000BF1437BD465DF817
:101D6800047B704780B485B000AF78607B681B68DF
:101D7800DBB2103B144AA2FB03231B09FB60134A86
:101D8800FB6813441B781A467B68DA65FB68032BEB
:101D980009D97B681B6823F47F7323F003031A1D9A
:101DA8007B689A6507E07B681B6823F47F7323F0E0
:101DB80003037A6893657B689B6D18461437BD46A4
:101DC8005DF8047B704700BFABAAAAAA603300087D
:101DD80080B485B000AF78600023FB737B689B6A92
:101DE800BB607B689B69002B1FD1BB68032B56D84F
:101DF80001A252F823F000BF111E0008231E00089C
:101E0800111E0008A71E00087B68DB6A03F08073B8
:101E1800002B46D00123FB7343E07B68DB6AB3F1F8
:101E2800C07F40D10123FB733DE07B689B69B3F51C
:101E3800005F21D1BB68032B37D801A252F823F0E9
:101E4800591E00085F1E0008591E0008711E000870
:101E58000123FB7330E07B68DB6A03F08073002B9F
:101E680025D00123FB7322E07B68DB6AB3F1C07FD6
:101E78001FD10123FB731CE0BB68022B03D9BB688D
:101E8800032B03D018E00123FB7315E07B68DB6AA2
:101E980003F08073002B0ED00123FB730BE000BF0F
:101EA8000AE000BF08E000BF06E000BF04E000BF92
:101EB80002E000BF00E000BFFB7B18461437BD46B8
:101EC8005DF8047B704700BF80B489B000AF7860CC
:101ED800396000237B6100233B610023BB61002341
:101EE800FB6159E10122FB6902FA03F37B613B685C
:101EF8001B687A6913403B613A697B699A4240F0F2
:101F080048813B685B6803F00303012B05D03B68FD
:101F18005B6803F00303022B30D17B689B68BB61CD
:101F2800FB695B00032202FA03F3DB43BA6913403F
:101F3800BB613B68DA68FB695B0002FA03F3BA69C4
:101F48001343BB617B68BA699A607B685B68BB6155
:101F58000122FB6902FA03F3DB43BA691340BB6150
:101F68003B685B681B0903F00102FB6902FA03F393
:101F7800BA691343BB617B68BA695A603B685B689E
:101F880003F00303032B17D07B68DB68BB61FB6995
:101F98005B00032202FA03F3DB43BA691340BB6117
:101FA8003B689A68FB695B0002FA03F3BA6913435A
:101FB800BB617B68BA69DA603B685B6803F003035E
:101FC800022B23D1FB69DA087B68083253F82230E8
:101FD800BB61FB6903F007039B000F2202FA03F3BE
:101FE800DB43BA691340BB613B681A69FB6903F0BC
:101FF80007039B0002FA03F3BA691343BB61FB6949
:10200800DA087B680832B96943F822107B681B68D4
:10201800BB61FB695B00032202FA03F3DB43BA6985
:102028001340BB613B685B6803F00302FB695B001C
:1020380002FA03F3BA691343BB617B68BA691A6091
:102048003B685B6803F44033002B00F0A280002358
:10205800FB60574B5B6C564A43F480435364544BC4
:102068005B6C03F48043FB60FB68524AFB699B0886
:10207800023352F82330BB61FB6903F003039B0072
:102088000F2202FA03F3DB43BA691340BB617B6892
:10209800494A934219D07B68484A934213D07B68D7
:1020A800474A93420DD07B68464A934207D07B68E3
:1020B800454A934201D1042308E0072306E003239D
:1020C80004E0022302E0012300E00023FA6902F0A1
:1020D800030292009340BA691343BB613549FB6917
:1020E8009B080233BA6941F82320384B9B68BB61CF
:1020F8003B69DB43BA691340BB613B685B6803F427
:102108008013002B03D0BA693B691343BB612F4A84
:10211800BB6993602D4BDB68BB613B69DB43BA69E4
:102128001340BB613B685B6803F40013002B03D0CA
:10213800BA693B691343BB61244ABB69D360234B2B
:102148005B68BB613B69DB43BA691340BB613B68B1
:102158005B6803F40033002B03D0BA693B6913436F
:10216800BB611A4ABB695360184B1B68BB613B696A
:10217800DB43BA691340BB613B685B6803F4803397
:10218800002B03D0BA693B691343BB610F4ABB6993
:102198001360FB690133FB61FB690F2B7FF6A2AE6D
:1021A80000BF00BF2437BD465DF8047B704700BF01
:1021B800003802400038014000000240000402409C
:1021C80000080240000C024000100240003C0140A0
:1021D80080B485B000AF78600B467B807B681A6955
:1021E8007B881340002B02D00123FB7301E00023FE
:1021F800FB73FB7B18461437BD465DF8047B7047BC
:1022080080B483B000AF78600B467B8013467B7048
:102218007B78002B03D07A887B689A6103E07B88FF
:102228001A047B689A6100BF0C37BD465DF8047BD1
:10223800704780B485B000AF78600B467B807B68C0
:102248005B69FB607A88FB6813401A04FB68D94312
:102258007B880B401A437B689A6100BF1437BD46E0
:102268005DF8047B7047000080B586B000AF7860E9
:102278007B68002B01D1012367E27B681B6803F0B0
:102288000103002B75D0884B9B6803F00C03042BCB
:102298000CD0854B9B6803F00C03082B12D1824BA2
:1022A8005B6803F48003B3F5800F0BD17E4B1B688A
:1022B80003F40033002B5BD07B685B68002B57D19D
:1022C800012342E27B685B68B3F5803F06D1764B19
:1022D8001B68754A43F4803313601DE07B685B68B4
:1022E800B3F5A02F0CD1704B1B686F4A43F48023C1
:1022F80013606D4B1B686C4A43F4803313600BE02A
:10230800694B1B68684A23F480331360664B1B686B
:10231800654A23F4802313607B685B68002B13D025
:10232800FEF7C6FE386108E0FEF7C2FE02463B69CA
:10233800D31A642B01D9032307E25B4B1B6803F410
:102348000033002BF0D014E0FEF7B2FE386108E04D
:10235800FEF7AEFE02463B69D31A642B01D903236C
:10236800F3E1514B1B6803F40033002BF0D100E07C
:1023780000BF7B681B6803F00203002B63D04A4B45
:102388009B6803F00C03002B0BD0474B9B6803F0B2
:102398000C03082B1CD1444B5B6803F48003002B0F
:1023A80016D1414B1B6803F00203002B05D07B6854
:1023B800DB68012B01D00123C7E13B4B1B6823F0ED
:1023C800F8027B681B69DB00374913430B603AE06E
:1023D8007B68DB68002B20D0344B01221A60FEF7A3
:1023E80067FE386108E0FEF763FE02463B69D31AD0
:1023F800022B01D90323A8E12B4B1B6803F002032E
:10240800002BF0D0284B1B6823F0F8027B681B696F
:10241800DB00254913430B6015E0244B00221A60AA
:10242800FEF746FE386108E0FEF742FE02463B69C9
:10243800D31A022B01D9032387E11B4B1B6803F036
:102448000203002BF0D17B681B6803F00803002B04
:1024580036D07B685B69002B16D0154B01221A60B9
:10246800FEF726FE386108E0FEF722FE02463B69C9
:10247800D31A022B01D9032367E10B4B5B6F03F0DF
:102488000203002BF0D01BE0094B00221A60FEF774
:102498000FFE38610EE0FEF70BFE02463B69D31AC9
:1024A800022B07D9032350E10038024000004742BD
:1024B800800E4742884B5B6F03F00203002BEAD182
:1024C8007B681B6803F00403002B00F0978000234F
:1024D800FB75814B1B6C03F08053002B0FD100233D
:1024E800BB607D4B1B6C7C4A43F0805313647A4B72
:1024F8001B6C03F08053BB60BB680123FB75774BF3
:102508001B6803F48073002B18D1744B1B68734A43
:1025180043F480731360FEF7CBFD386108E0FEF7E3
:10252800C7FD02463B69D31A022B01D903230CE1EC
:102538006A4B1B6803F48073002BF0D07B689B68A0
:10254800012B06D1644B1B6F634A43F001031367E9
:102558001CE07B689B68052B0CD15F4B1B6F5E4AA8
:1025680043F0040313675C4B1B6F5B4A43F00103A2
:1025780013670BE0584B1B6F574A23F0010313678F
:10258800554B1B6F544A23F0040313677B689B6801
:10259800002B15D0FEF78CFD38610AE0FEF788FDA8
:1025A80002463B69D31A41F28832934201D9032388
:1025B800CBE0494B1B6F03F00203002BEED014E075
:1025C800FEF776FD38610AE0FEF772FD02463B69C8
:1025D800D31A41F28832934201D90323B5E03E4B26
:1025E8001B6F03F00203002BEED1FB7D012B05D1FD
:1025F800394B1B6C384A23F0805313647B689B6902
:10260800002B00F0A180344B9B6803F00C03082BCF
:102618005CD07B689B69022B41D1314B00221A6048
:10262800FEF746FD386108E0FEF742FD02463B69C9
:10263800D31A022B01D9032387E0274B1B6803F029
:102648000073002BF0D17B68DA697B681B6A1A4338
:102658007B685B6A9B011A437B689B6A5B08013B4A
:102668001B041A437B68DB6A1B061B4913434B6038
:102678001B4B01221A60FEF71BFD386108E0FEF7CC
:1026880017FD02463B69D31A022B01D903235CE0EC
:10269800114B1B6803F00073002BF0D054E0104B73
:1026A80000221A60FEF704FD386108E0FEF700FD1D
:1026B80002463B69D31A022B01D9032345E0064B96
:1026C8001B6803F00073002BF0D13DE07B689B6929
:1026D800012B07D1012338E0003802400070004088
:1026E800600047421B4B5B68FB607B689B69012B62
:1026F80028D0FB6803F480027B68DB699A4221D109
:10270800FB6803F03F027B681B6A9A421AD1FA6899
:1027180047F6C07313407A68526A9201934211D106
:10272800FB6803F440327B689B6A5B08013B1B042F
:102738009A4207D1FB6803F070627B68DB6A1B066C
:102748009A4201D0012300E0002318461837BD46FD
:1027580080BD00BF0038024080B584B000AF78600B
:1027680039607B68002B01D10123CCE0684B1B68E2
:1027780003F007033A689A420CD9654B3A68D2B21B
:102788001A70634B1B6803F007033A689A4201D03A
:102798000123B8E07B681B6803F00203002B20D0FC
:1027A8007B681B6803F00403002B05D0594B9B681A
:1027B800584A43F4E05393607B681B6803F00803AE
:1027C800002B05D0534B9B68524A43F460439360F7
:1027D800504B9B6823F0F0027B689B684D4913437C
:1027E8008B607B681B6803F00103002B44D07B6877
:1027F8005B68012B07D1474B1B6803F40033002BA0
:1028080019D101237FE07B685B68022B03D07B68CA
:102818005B68032B07D13F4B1B6803F00073002B49
:1028280009D101236FE03B4B1B6803F00203002B27
:1028380001D1012367E0374B9B6823F003027B68D3
:102848005B68344913438B60FEF732FCF8600AE09A
:10285800FEF72EFC0246FB68D31A41F288329342F7
:1028680001D903234FE02B4B9B6803F00C027B68D4
:102878005B689B009A42EBD1254B1B6803F007036A
:102888003A689A420CD2224B3A68D2B21A70204B5C
:102898001B6803F007033A689A4201D0012332E02B
:1028A8007B681B6803F00403002B08D0194B9B6856
:1028B80023F4E0527B68DB68164913438B607B681E
:1028C8001B6803F00803002B09D0124B9B6823F404
:1028D80060427B681B69DB000E4913438B6000F084
:1028E80021F802460B4B9B681B0903F00F030A49AA
:1028F800CB5C22FA03F3094A1360094B1B6818469C
:10290800FEF792FB002318461037BD4680BD00BF76
:10291800003C024000380240503300080400002008
:10292800080000202DE9B04F90B000AF00237B6372
:102938000023FB6300233B630023BB63594B9B6865
:1029480003F00C03082B0DD0082B00F2A180002BFC
:1029580002D0042B03D09BE0534BBB639BE0534B4B
:10296800BB6398E04F4B5B6803F03F037B634D4BC1
:102978005B6803F48003002B28D04A4B5B689B09F3
:1029880000223B627A623B6AC3F308000021474B8E
:1029980003FB01F2002300FB03F31344434AA0FBAB
:1029A8000212FA620A46BA62FA6A1344FB627B6B45
:1029B8000022BB61FA61D7E90623D7E90A01FDF7CE
:1029C8002BFC02460B461346FB6353E0354B5B6812
:1029D8009B0900223B617A613B69C3F3080A4FF007
:1029E800000B52465B464FF000004FF000015901C2
:1029F80041EAD261500102460B46B2EB0A0863EB8A
:102A08000B094FF000024FF000034FEA891343EA25
:102A180098634FEA8812B2EB080463EB09054FF09C
:102A280000024FF00003EB0043EA5473E20014463F
:102A38001D4614EB0A033B6045EB0B037B604FF02C
:102A480000024FF00003D7E9004529468B022146D2
:102A580043EA915321468A02104619467B6B0022AD
:102A6800BB60FA60D7E90223FDF7D6FB02460B46A6
:102A78001346FB630B4B5B681B0C03F0030301332A
:102A88005B003B63FA6B3B6BB2FBF3F3BB6302E0A7
:102A9800054BBB6300BFBB6B18464037BD46BDE85E
:102AA800B08F00BF003802400024F40040787D0158
:102AB80080B582B000AF78607B68002B01D101231C
:102AC80041E07B6893F83D30DBB2002B06D17B6890
:102AD800002283F83C20786800F039F87B680222ED
:102AE80083F83D207B681A687B68043319461046D2
:102AF80000F0AAF97B68012283F846207B6801224E
:102B080083F83E207B68012283F83F207B680122FE
:102B180083F840207B68012283F841207B680122EA
:102B280083F842207B68012283F843207B680122D6
:102B380083F844207B68012283F845207B680122C2
:102B480083F83D20002318460837BD4680BD80B471
:102B580083B000AF786000BF0C37BD465DF8047BDA
:102B68007047000080B584B000AF786039603B687A
:102B7800002B09D17B6893F83E30DBB2012B14BFE0
:102B880001230023DBB222E03B68042B09D17B68D8
:102B980093F83F30DBB2012B14BF01230023DBB2D3
:102BA80015E03B68082B09D17B6893F84030DBB20D
:102BB800012B14BF01230023DBB208E07B6893F8E4
:102BC8004130DBB2012B14BF01230023DBB2002B01
:102BD80001D0012368E03B68002B04D17B68022206
:102BE80083F83E2013E03B68042B04D17B68022263
:102BF80083F83F200BE03B68082B04D17B68022256
:102C080083F8402003E07B68022283F841207B6838
:102C18001B6801223968184600F02EFB7B681B6888
:102C2800234A934207D17B681B685A6C7B681B68F0
:102C380042F400425A647B681B681D4A934218D0CC
:102C48007B681B68B3F1804F13D07B681B68194AF7
:102C580093420ED07B681B68174A934209D07B6861
:102C68001B68164A934204D07B681B68144A934237
:102C780011D17B681B689B6803F00703FB60FB6846
:102C8800062B10D07B681B681A687B681B6842F0AB
:102C980001021A6007E07B681B681A687B681B687A
:102CA80042F001021A60002318461037BD4680BD65
:102CB800000001400004004000080040000C0040F3
:102CC8000040014080B586B000AFF860B9607A6016
:102CD8000023FB75FB6893F83C30012B01D10223DC
:102CE800AEE0FB68012283F83C207B680C2B00F2E5
:102CF8009F8001A252F823F0352D0008392E0008D4
:102D0800392E0008392E0008752D0008392E0008C4
:102D1800392E0008392E0008B72D0008392E000872
:102D2800392E0008392E0008F72D0008FB681B68AB
:102D3800B968184600F00EF9FB681B689A69FB68C9
:102D48001B6842F008029A61FB681B689A69FB6875
:102D58001B6822F004029A61FB681B689969BB68CA
:102D68001A69FB681B680A439A6164E0FB681B6880
:102D7800B968184600F056F9FB681B689A69FB6841
:102D88001B6842F400629A61FB681B689A69FB68D9
:102D98001B6822F480629A61FB681B689969BB68AA
:102DA8001B691A02FB681B680A439A6143E0FB68C7
:102DB8001B68B968184600F0A3F9FB681B68DA6954
:102DC800FB681B6842F00802DA61FB681B68DA6975
:102DD800FB681B6822F00402DA61FB681B68D9698A
:102DE800BB681A69FB681B680A43DA6123E0FB6861
:102DF8001B68B968184600F0EFF9FB681B68DA69C8
:102E0800FB681B6842F40062DA61FB681B68DA69D8
:102E1800FB681B6822F48062DA61FB681B68D96969
:102E2800BB681B691A02FB681B680A43DA6102E087
:102E38000123FB7500BFFB68002283F83C20FB7D63
:102E480018461837BD4680BD80B485B000AF78609D
:102E580039607B681B68FB607B68374A93420FD0F8
:102E68007B68B3F1804F0BD07B68344A934207D01C
:102E78007B68334A934203D07B68324A934208D135
:102E8800FB6823F07003FB603B685B68FA681343D8
:102E9800FB607B68284A93421BD07B68B3F1804F64
:102EA80017D07B68254A934213D07B68244A934203
:102EB8000FD07B68234A93420BD07B68224A934207
:102EC80007D07B68214A934203D07B68204A93420B
:102ED80008D1FB6823F44073FB603B68DB68FA6841
:102EE8001343FB60FB6823F080023B685B69134374
:102EF800FB603B689A687B68DA623B681A687B68A3
:102F08009A627B680C4A934203D13B681A697B68D2
:102F18001A637B681B6843F004027B681A607B684D
:102F280001225A617B68FA681A6000BF1437BD46EF
:102F38005DF8047B704700BF0000014000040040BA
:102F480000080040000C00400040014000440140DF
:102F58000048014080B487B000AF786039607B6872
:102F68001B6A7B617B681B6A23F001027B681A621B
:102F78007B685B683B617B689B69FB60FB6823F04F
:102F88007003FB60FB6823F00303FB603B681B686E
:102F9800FA681343FB607B6923F002037B613B689B
:102FA8009B687A6913437B617B681D4A93420ED103
:102FB8007B681B6A23F004027B681A627B6923F032
:102FC80008037B613B68DB687A6913437B617B6834
:102FD800134A934211D13B6923F480733B613B69E7
:102FE80023F400733B613B685B693A6913433B61B7
:102FF8003B689B693A6913433B617B683A695A604D
:103008007B68FA689A613B685A687B685A637B6890
:103018007A691A6200BF1C37BD465DF8047B7047A9
:103028000000014080B487B000AF786039607B68E9
:103038001B6A7B617B681B6A23F010027B681A623B
:103048007B685B683B617B689B69FB60FB6823F47A
:10305800E043FB60FB6823F44073FB603B681B683C
:103068001B02FA681343FB607B6923F020037B6132
:103078003B689B681B017A6913437B617B681F4A25
:1030880093420FD17B681B6A23F040027B681A6267
:103098007B6923F080037B613B68DB681B017A69ED
:1030A80013437B617B68154A934213D13B6923F430
:1030B80080633B613B6923F400633B613B685B6968
:1030C8009B003A6913433B613B689B699B003A69E3
:1030D80013433B617B683A695A607B68FA689A6176
:1030E8003B685A687B689A637B687A691A6200BF92
:1030F8001C37BD465DF8047B704700BF00000140E7
:1031080080B487B000AF786039607B681B6A7B61E8
:103118007B681B6A23F480727B681A627B685B6831
:103128003B617B68DB69FB60FB6823F07003FB6035
:10313800FB6823F00303FB603B681B68FA681343D2
:10314800FB607B6923F400737B613B689B681B020F
:103158007A6913437B617B681E4A93420FD17B686F
:103168001B6A23F480627B681A627B6923F400631C
:103178007B613B68DB681B027A6913437B617B6870
:10318800144A934213D13B6923F480533B613B6952
:1031980023F400533B613B685B691B013A691343A5
:1031A8003B613B689B691B013A6913433B617B6840
:1031B8003A695A607B68FA68DA613B685A687B68E2
:1031C800DA637B687A691A6200BF1C37BD465DF80E
:1031D800047B70470000014080B487B000AF78607E
:1031E80039607B681B6A3B617B681B6A23F48052E9
:1031F8007B681A627B685B687B617B68DB69FB6064
:10320800FB6823F4E043FB60FB6823F44073FB6036
:103218003B681B681B02FA681343FB603B6923F495
:1032280000533B613B689B681B033A6913433B614E
:103238007B68104A934209D17B6923F480437B6100
:103248003B685B699B017A6913437B617B687A6998
:103258005A607B68FA68DA613B685A687B681A6466
:103268007B683A691A6200BF1C37BD465DF8047B6B
:10327800704700BF0000014080B487B000AFF8601D
:10328800B9607A60BB6803F01F03012202FA03F3F6
:103298007B61FB681A6A7B69DB431A40FB681A6228
:1032A800FB681A6ABB6803F01F03796801FA03F325
:1032B8001A43FB681A6200BF1C37BD465DF8047BE1
:1032C80070470000DFF834D0FDF772FE0C480D4956
:1032D8000D4A002302E0D458C4500433C4188C4269
:1032E800F9D30A4A0A4C002301E013600432A242CF
:1032F800FBD3FDF713F9FDF765FA704700000220CC
:103308000000002010000020783300081000002082
:103318006C010020FEE70000F8B500BFF8BC08BC4F
:103328009E467047F8B500BFF8BC08BC9E4670477B
:103338000000000005000000060000000700000073
:103348000800000009000000000000000000000064
:1033580001020304060708090006101600061016E5
:08336800E8CEFF7F0100000028
:04337000010200084E
:04337400D901000873
:10337800020000000024F40010000000010000001A
:04000005080032CDF0
:00000001FF
